{
  "contractName": "Photos",
  "abi": [
    {
      "anonymous": false,
      "inputs": [
        {
          "indexed": false,
          "internalType": "uint256",
          "name": "id",
          "type": "uint256"
        },
        {
          "indexed": false,
          "internalType": "string",
          "name": "hash",
          "type": "string"
        },
        {
          "indexed": false,
          "internalType": "string",
          "name": "description",
          "type": "string"
        },
        {
          "indexed": false,
          "internalType": "uint256",
          "name": "tipAmount",
          "type": "uint256"
        },
        {
          "indexed": false,
          "internalType": "address payable",
          "name": "author",
          "type": "address"
        }
      ],
      "name": "ImageCreated",
      "type": "event"
    },
    {
      "anonymous": false,
      "inputs": [
        {
          "indexed": false,
          "internalType": "uint256",
          "name": "id",
          "type": "uint256"
        },
        {
          "indexed": false,
          "internalType": "string",
          "name": "hash",
          "type": "string"
        },
        {
          "indexed": false,
          "internalType": "string",
          "name": "description",
          "type": "string"
        },
        {
          "indexed": false,
          "internalType": "uint256",
          "name": "tipAmount",
          "type": "uint256"
        },
        {
          "indexed": false,
          "internalType": "address payable",
          "name": "author",
          "type": "address"
        }
      ],
      "name": "ImageTipped",
      "type": "event"
    },
    {
      "constant": true,
      "inputs": [],
      "name": "ethswap",
      "outputs": [
        {
          "internalType": "contract EthSwap",
          "name": "",
          "type": "address"
        }
      ],
      "payable": false,
      "stateMutability": "view",
      "type": "function"
    },
    {
      "constant": true,
      "inputs": [],
      "name": "imageCount",
      "outputs": [
        {
          "internalType": "uint256",
          "name": "",
          "type": "uint256"
        }
      ],
      "payable": false,
      "stateMutability": "view",
      "type": "function"
    },
    {
      "constant": true,
      "inputs": [
        {
          "internalType": "uint256",
          "name": "",
          "type": "uint256"
        }
      ],
      "name": "images",
      "outputs": [
        {
          "internalType": "uint256",
          "name": "id",
          "type": "uint256"
        },
        {
          "internalType": "string",
          "name": "hash",
          "type": "string"
        },
        {
          "internalType": "string",
          "name": "description",
          "type": "string"
        },
        {
          "internalType": "uint256",
          "name": "tipAmount",
          "type": "uint256"
        },
        {
          "internalType": "address payable",
          "name": "author",
          "type": "address"
        }
      ],
      "payable": false,
      "stateMutability": "view",
      "type": "function"
    },
    {
      "constant": true,
      "inputs": [],
      "name": "name",
      "outputs": [
        {
          "internalType": "string",
          "name": "",
          "type": "string"
        }
      ],
      "payable": false,
      "stateMutability": "view",
      "type": "function"
    },
    {
      "constant": false,
      "inputs": [
        {
          "internalType": "string",
          "name": "_imgHash",
          "type": "string"
        },
        {
          "internalType": "string",
          "name": "_description",
          "type": "string"
        }
      ],
      "name": "uploadImage",
      "outputs": [],
      "payable": false,
      "stateMutability": "nonpayable",
      "type": "function"
    },
    {
      "constant": false,
      "inputs": [
        {
          "internalType": "uint256",
          "name": "_id",
          "type": "uint256"
        },
        {
          "internalType": "uint256",
          "name": "_amount",
          "type": "uint256"
        }
      ],
      "name": "tipImageOwner",
      "outputs": [],
      "payable": true,
      "stateMutability": "payable",
      "type": "function"
    }
  ],
  "bytecode": "0x60806040526040518060400160405280600681526020017f50686f746f7300000000000000000000000000000000000000000000000000008152506000908051906020019061004f929190610067565b50600060025534801561006157600080fd5b5061010c565b828054600181600116156101000203166002900490600052602060002090601f016020900481019282601f106100a857805160ff19168380011785556100d6565b828001600101855582156100d6579182015b828111156100d55782518255916020019190600101906100ba565b5b5090506100e391906100e7565b5090565b61010991905b808211156101055760008160009055506001016100ed565b5090565b90565b610f528061011b6000396000f3fe6080604052600436106100555760003560e01c806306fdde031461005a5780637feef3ea146100ea57806384856482146101415780638cf67bbb146102a257806392053b63146102da578063a91b831414610305575b600080fd5b34801561006657600080fd5b5061006f610464565b6040518080602001828103825283818151815260200191508051906020019080838360005b838110156100af578082015181840152602081019050610094565b50505050905090810190601f1680156100dc5780820380516001836020036101000a031916815260200191505b509250505060405180910390f35b3480156100f657600080fd5b506100ff610502565b604051808273ffffffffffffffffffffffffffffffffffffffff1673ffffffffffffffffffffffffffffffffffffffff16815260200191505060405180910390f35b34801561014d57600080fd5b5061017a6004803603602081101561016457600080fd5b8101908080359060200190929190505050610528565b6040518086815260200180602001806020018581526020018473ffffffffffffffffffffffffffffffffffffffff1673ffffffffffffffffffffffffffffffffffffffff168152602001838103835287818151815260200191508051906020019080838360005b838110156101fc5780820151818401526020810190506101e1565b50505050905090810190601f1680156102295780820380516001836020036101000a031916815260200191505b50838103825286818151815260200191508051906020019080838360005b83811015610262578082015181840152602081019050610247565b50505050905090810190601f16801561028f5780820380516001836020036101000a031916815260200191505b5097505050505050505060405180910390f35b6102d8600480360360408110156102b857600080fd5b8101908080359060200190929190803590602001909291905050506106ae565b005b3480156102e657600080fd5b506102ef610b84565b6040518082815260200191505060405180910390f35b34801561031157600080fd5b506104626004803603604081101561032857600080fd5b810190808035906020019064010000000081111561034557600080fd5b82018360208201111561035757600080fd5b8035906020019184600183028401116401000000008311171561037957600080fd5b91908080601f016020809104026020016040519081016040528093929190818152602001838380828437600081840152601f19601f820116905080830192505050505050509192919290803590602001906401000000008111156103dc57600080fd5b8201836020820111156103ee57600080fd5b8035906020019184600183028401116401000000008311171561041057600080fd5b91908080601f016020809104026020016040519081016040528093929190818152602001838380828437600081840152601f19601f820116905080830192505050505050509192919290505050610b8a565b005b60008054600181600116156101000203166002900480601f0160208091040260200160405190810160405280929190818152602001828054600181600116156101000203166002900480156104fa5780601f106104cf576101008083540402835291602001916104fa565b820191906000526020600020905b8154815290600101906020018083116104dd57829003601f168201915b505050505081565b600160009054906101000a900473ffffffffffffffffffffffffffffffffffffffff1681565b6003602052806000526040600020600091509050806000015490806001018054600181600116156101000203166002900480601f0160208091040260200160405190810160405280929190818152602001828054600181600116156101000203166002900480156105da5780601f106105af576101008083540402835291602001916105da565b820191906000526020600020905b8154815290600101906020018083116105bd57829003601f168201915b505050505090806002018054600181600116156101000203166002900480601f0160208091040260200160405190810160405280929190818152602001828054600181600116156101000203166002900480156106785780601f1061064d57610100808354040283529160200191610678565b820191906000526020600020905b81548152906001019060200180831161065b57829003601f168201915b5050505050908060030154908060040160009054906101000a900473ffffffffffffffffffffffffffffffffffffffff16905085565b6000821180156106c057506002548211155b6106c957600080fd5b6106d1610e33565b600360008481526020019081526020016000206040518060a001604052908160008201548152602001600182018054600181600116156101000203166002900480601f0160208091040260200160405190810160405280929190818152602001828054600181600116156101000203166002900480156107925780601f1061076757610100808354040283529160200191610792565b820191906000526020600020905b81548152906001019060200180831161077557829003601f168201915b50505050508152602001600282018054600181600116156101000203166002900480601f0160208091040260200160405190810160405280929190818152602001828054600181600116156101000203166002900480156108345780601f1061080957610100808354040283529160200191610834565b820191906000526020600020905b81548152906001019060200180831161081757829003601f168201915b50505050508152602001600382015481526020016004820160009054906101000a900473ffffffffffffffffffffffffffffffffffffffff1673ffffffffffffffffffffffffffffffffffffffff1673ffffffffffffffffffffffffffffffffffffffff16815250509050600081608001519050600160009054906101000a900473ffffffffffffffffffffffffffffffffffffffff1673ffffffffffffffffffffffffffffffffffffffff1663d012c5f184836040518363ffffffff1660e01b8152600401808381526020018273ffffffffffffffffffffffffffffffffffffffff1673ffffffffffffffffffffffffffffffffffffffff16815260200192505050600060405180830381600087803b15801561095157600080fd5b505af1158015610965573d6000803e3d6000fd5b505050508282606001510182606001818152505081600360008681526020019081526020016000206000820151816000015560208201518160010190805190602001906109b3929190610e78565b5060408201518160020190805190602001906109d0929190610e78565b506060820151816003015560808201518160040160006101000a81548173ffffffffffffffffffffffffffffffffffffffff021916908373ffffffffffffffffffffffffffffffffffffffff1602179055509050507f1be5317bca8d3f70dc1efe89958be71bff36cdca33fc00a6423e25eb2f1d492f84836020015184604001518560600151856040518086815260200180602001806020018581526020018473ffffffffffffffffffffffffffffffffffffffff1673ffffffffffffffffffffffffffffffffffffffff168152602001838103835287818151815260200191508051906020019080838360005b83811015610ad9578082015181840152602081019050610abe565b50505050905090810190601f168015610b065780820380516001836020036101000a031916815260200191505b50838103825286818151815260200191508051906020019080838360005b83811015610b3f578082015181840152602081019050610b24565b50505050905090810190601f168015610b6c5780820380516001836020036101000a031916815260200191505b5097505050505050505060405180910390a150505050565b60025481565b6000825111610b9857600080fd5b6000815111610ba657600080fd5b600073ffffffffffffffffffffffffffffffffffffffff163373ffffffffffffffffffffffffffffffffffffffff161415610be057600080fd5b6002600081548092919060010191905055506040518060a001604052806002548152602001838152602001828152602001600081526020013373ffffffffffffffffffffffffffffffffffffffff16815250600360006002548152602001908152602001600020600082015181600001556020820151816001019080519060200190610c6d929190610e78565b506040820151816002019080519060200190610c8a929190610e78565b506060820151816003015560808201518160040160006101000a81548173ffffffffffffffffffffffffffffffffffffffff021916908373ffffffffffffffffffffffffffffffffffffffff1602179055509050507fc1d8dfa99b3f84f95d3f0bc4a768addeb97b83b20aef7f9cb6729e126bafd2f960025483836000336040518086815260200180602001806020018581526020018473ffffffffffffffffffffffffffffffffffffffff1673ffffffffffffffffffffffffffffffffffffffff168152602001838103835287818151815260200191508051906020019080838360005b83811015610d8a578082015181840152602081019050610d6f565b50505050905090810190601f168015610db75780820380516001836020036101000a031916815260200191505b50838103825286818151815260200191508051906020019080838360005b83811015610df0578082015181840152602081019050610dd5565b50505050905090810190601f168015610e1d5780820380516001836020036101000a031916815260200191505b5097505050505050505060405180910390a15050565b6040518060a0016040528060008152602001606081526020016060815260200160008152602001600073ffffffffffffffffffffffffffffffffffffffff1681525090565b828054600181600116156101000203166002900490600052602060002090601f016020900481019282601f10610eb957805160ff1916838001178555610ee7565b82800160010185558215610ee7579182015b82811115610ee6578251825591602001919060010190610ecb565b5b509050610ef49190610ef8565b5090565b610f1a91905b80821115610f16576000816000905550600101610efe565b5090565b9056fea265627a7a723158207077b91b284ade134081900d729ae3392f3100ec2e5dea3f0ef8d02609844e0364736f6c63430005100032",
  "source": "pragma solidity ^0.5.0;\r\nimport \"./Token.sol\";\r\nimport \"./EthSwap.sol\";\r\n\r\ncontract Photos {\r\n    string  public name = \"Photos\";\r\n    EthSwap public ethswap;\r\n\r\n    //Store Images\r\n    uint public imageCount =0;\r\n    mapping(uint => Image) public images;\r\n\r\n    struct Image{\r\n      uint id;\r\n      string hash;\r\n      string description;\r\n      uint tipAmount;\r\n      address payable author;\r\n    }\r\n\r\n    event ImageCreated(\r\n      uint id,\r\n      string hash,\r\n      string description,\r\n      uint tipAmount,\r\n      address payable author\r\n  );\r\n\r\n  event ImageTipped(\r\n    uint id,\r\n    string hash,\r\n    string description,\r\n    uint tipAmount,\r\n    address payable author\r\n);\r\n\r\n    //Create Images\r\n    function uploadImage(string memory _imgHash, string memory _description) public {\r\n\r\n      require(bytes(_imgHash).length >0);\r\n      require(bytes(_description).length >0);\r\n      require(msg.sender != address(0x0));\r\n\r\n\r\n      imageCount++;\r\n      images[imageCount] = Image(imageCount, _imgHash, _description, 0, msg.sender);\r\n\r\n      emit ImageCreated(imageCount, _imgHash, _description, 0, msg.sender);\r\n    }\r\n\r\n\r\n\r\n    //Tip Images\r\n    function tipImageOwner(uint _id, uint _amount) public payable{\r\n\r\n      require(_id>0 && _id<=imageCount);\r\n\r\n      Image memory _image = images[_id];\r\n      address payable _author = _image.author;\r\n\r\n      ethswap.transferTokens(_amount, _author);\r\n      _image.tipAmount = _image.tipAmount + _amount;\r\n      images[_id] = _image;\r\n\r\n      emit ImageTipped(_id, _image.hash, _image.description, _image.tipAmount, _author);\r\n    }\r\n\r\n}\r\n",
  "sourcePath": "C:/Users/maitr/OneDrive/Desktop/Coin_exchange/src/contracts/Photos.sol",
  "compiler": {
    "name": "solc",
    "version": "0.5.16+commit.9c3226ce.Emscripten.clang"
  },
  "schemaVersion": "3.2.3",
  "updatedAt": "2021-06-09T18:05:21.674Z",
  "devdoc": {
    "methods": {}
  },
  "userdoc": {
    "methods": {}
  }
}